{
  "contracts/SignatureVerification.sol": {
    "SignatureVerification": {
      "abi": [
        {
          "inputs": [
            {
              "internalType": "bytes32",
              "name": "_messageHash",
              "type": "bytes32"
            }
          ],
          "name": "getEthSignedMessageHash",
          "outputs": [
            {
              "internalType": "bytes32",
              "name": "",
              "type": "bytes32"
            }
          ],
          "stateMutability": "pure",
          "type": "function"
        },
        {
          "inputs": [
            {
              "internalType": "string",
              "name": "message",
              "type": "string"
            }
          ],
          "name": "getEthSignedMessageHashV2",
          "outputs": [
            {
              "internalType": "bytes32",
              "name": "",
              "type": "bytes32"
            }
          ],
          "stateMutability": "pure",
          "type": "function"
        },
        {
          "inputs": [
            {
              "internalType": "string",
              "name": "_message",
              "type": "string"
            }
          ],
          "name": "getMessageHash",
          "outputs": [
            {
              "internalType": "bytes32",
              "name": "",
              "type": "bytes32"
            }
          ],
          "stateMutability": "pure",
          "type": "function"
        },
        {
          "inputs": [
            {
              "internalType": "bytes32",
              "name": "_messageHash",
              "type": "bytes32"
            },
            {
              "internalType": "uint8",
              "name": "_v",
              "type": "uint8"
            },
            {
              "internalType": "bytes32",
              "name": "_r",
              "type": "bytes32"
            },
            {
              "internalType": "bytes32",
              "name": "_s",
              "type": "bytes32"
            }
          ],
          "name": "verify",
          "outputs": [
            {
              "internalType": "address",
              "name": "",
              "type": "address"
            }
          ],
          "stateMutability": "pure",
          "type": "function"
        }
      ],
      "evm": {
        "bytecode": {
          "linkReferences": {},
          "object": "6080604052348015600f57600080fd5b50610a658061001f6000396000f3fe608060405234801561001057600080fd5b506004361061004c5760003560e01c80639dc3eae314610051578063b446f3b214610081578063f1835db7146100b1578063fa540801146100e1575b600080fd5b61006b600480360381019061006691906104ca565b610111565b604051610078919061052c565b60405180910390f35b61009b600480360381019061009691906104ca565b610151565b6040516100a8919061052c565b60405180910390f35b6100cb60048036038101906100c691906105ac565b610181565b6040516100d89190610654565b60405180910390f35b6100fb60048036038101906100f6919061066f565b6101e1565b604051610108919061052c565b60405180910390f35b6000808251905061012181610211565b83604051602001610133929190610759565b60405160208183030381529060405280519060200120915050919050565b6000816040516020016101649190610788565b604051602081830303815290604052805190602001209050919050565b600080600186868686604051600081526020016040526040516101a794939291906107ae565b6020604051602081039080840390855afa1580156101c9573d6000803e3d6000fd5b50505060206040510351905080915050949350505050565b6000816040516020016101f49190610860565b604051602081830303815290604052805190602001209050919050565b606060008203610258576040518060400160405280600181526020017f3000000000000000000000000000000000000000000000000000000000000000815250905061036b565b6000808390505b60008114610289578180610272906108bf565b925050600a816102829190610936565b905061025f565b60008267ffffffffffffffff8111156102a5576102a461039f565b5b6040519080825280601f01601f1916602001820160405280156102d75781602001600182028036833780820191505090505b5090505b60008514610364576001836102f09190610967565b9250600a856102ff919061099b565b603061030b91906109cc565b60f81b81848151811061032157610320610a00565b5b60200101907effffffffffffffffffffffffffffffffffffffffffffffffffffffffffffff1916908160001a905350600a8561035d9190610936565b94506102db565b8093505050505b919050565b6000604051905090565b600080fd5b600080fd5b600080fd5b600080fd5b6000601f19601f8301169050919050565b7f4e487b7100000000000000000000000000000000000000000000000000000000600052604160045260246000fd5b6103d78261038e565b810181811067ffffffffffffffff821117156103f6576103f561039f565b5b80604052505050565b6000610409610370565b905061041582826103ce565b919050565b600067ffffffffffffffff8211156104355761043461039f565b5b61043e8261038e565b9050602081019050919050565b82818337600083830152505050565b600061046d6104688461041a565b6103ff565b90508281526020810184848401111561048957610488610389565b5b61049484828561044b565b509392505050565b600082601f8301126104b1576104b0610384565b5b81356104c184826020860161045a565b91505092915050565b6000602082840312156104e0576104df61037a565b5b600082013567ffffffffffffffff8111156104fe576104fd61037f565b5b61050a8482850161049c565b91505092915050565b6000819050919050565b61052681610513565b82525050565b6000602082019050610541600083018461051d565b92915050565b61055081610513565b811461055b57600080fd5b50565b60008135905061056d81610547565b92915050565b600060ff82169050919050565b61058981610573565b811461059457600080fd5b50565b6000813590506105a681610580565b92915050565b600080600080608085870312156105c6576105c561037a565b5b60006105d48782880161055e565b94505060206105e587828801610597565b93505060406105f68782880161055e565b92505060606106078782880161055e565b91505092959194509250565b600073ffffffffffffffffffffffffffffffffffffffff82169050919050565b600061063e82610613565b9050919050565b61064e81610633565b82525050565b60006020820190506106696000830184610645565b92915050565b6000602082840312156106855761068461037a565b5b60006106938482850161055e565b91505092915050565b600081905092915050565b7f19457468657265756d205369676e6564204d6573736167653a0a000000000000600082015250565b60006106dd601a8361069c565b91506106e8826106a7565b601a82019050919050565b600081519050919050565b60005b8381101561071c578082015181840152602081019050610701565b60008484015250505050565b6000610733826106f3565b61073d818561069c565b935061074d8185602086016106fe565b80840191505092915050565b6000610764826106d0565b91506107708285610728565b915061077c8284610728565b91508190509392505050565b60006107948284610728565b915081905092915050565b6107a881610573565b82525050565b60006080820190506107c3600083018761051d565b6107d0602083018661079f565b6107dd604083018561051d565b6107ea606083018461051d565b95945050505050565b7f19457468657265756d205369676e6564204d6573736167653a0a333200000000600082015250565b6000610829601c8361069c565b9150610834826107f3565b601c82019050919050565b6000819050919050565b61085a61085582610513565b61083f565b82525050565b600061086b8261081c565b91506108778284610849565b60208201915081905092915050565b7f4e487b7100000000000000000000000000000000000000000000000000000000600052601160045260246000fd5b6000819050919050565b60006108ca826108b5565b91507fffffffffffffffffffffffffffffffffffffffffffffffffffffffffffffffff82036108fc576108fb610886565b5b600182019050919050565b7f4e487b7100000000000000000000000000000000000000000000000000000000600052601260045260246000fd5b6000610941826108b5565b915061094c836108b5565b92508261095c5761095b610907565b5b828204905092915050565b6000610972826108b5565b915061097d836108b5565b925082820390508181111561099557610994610886565b5b92915050565b60006109a6826108b5565b91506109b1836108b5565b9250826109c1576109c0610907565b5b828206905092915050565b60006109d7826108b5565b91506109e2836108b5565b92508282019050808211156109fa576109f9610886565b5b92915050565b7f4e487b7100000000000000000000000000000000000000000000000000000000600052603260045260246000fdfea264697066735822122067540ad8e380f7b66c45cfd5aebfb2d690f4ac7129866ad24d7cb2d85eed6e7f64736f6c634300081a0033",
          "opcodes": "PUSH1 0x80 PUSH1 0x40 MSTORE CALLVALUE DUP1 ISZERO PUSH1 0xF JUMPI PUSH1 0x0 DUP1 REVERT JUMPDEST POP PUSH2 0xA65 DUP1 PUSH2 0x1F PUSH1 0x0 CODECOPY PUSH1 0x0 RETURN INVALID PUSH1 0x80 PUSH1 0x40 MSTORE CALLVALUE DUP1 ISZERO PUSH2 0x10 JUMPI PUSH1 0x0 DUP1 REVERT JUMPDEST POP PUSH1 0x4 CALLDATASIZE LT PUSH2 0x4C JUMPI PUSH1 0x0 CALLDATALOAD PUSH1 0xE0 SHR DUP1 PUSH4 0x9DC3EAE3 EQ PUSH2 0x51 JUMPI DUP1 PUSH4 0xB446F3B2 EQ PUSH2 0x81 JUMPI DUP1 PUSH4 0xF1835DB7 EQ PUSH2 0xB1 JUMPI DUP1 PUSH4 0xFA540801 EQ PUSH2 0xE1 JUMPI JUMPDEST PUSH1 0x0 DUP1 REVERT JUMPDEST PUSH2 0x6B PUSH1 0x4 DUP1 CALLDATASIZE SUB DUP2 ADD SWAP1 PUSH2 0x66 SWAP2 SWAP1 PUSH2 0x4CA JUMP JUMPDEST PUSH2 0x111 JUMP JUMPDEST PUSH1 0x40 MLOAD PUSH2 0x78 SWAP2 SWAP1 PUSH2 0x52C JUMP JUMPDEST PUSH1 0x40 MLOAD DUP1 SWAP2 SUB SWAP1 RETURN JUMPDEST PUSH2 0x9B PUSH1 0x4 DUP1 CALLDATASIZE SUB DUP2 ADD SWAP1 PUSH2 0x96 SWAP2 SWAP1 PUSH2 0x4CA JUMP JUMPDEST PUSH2 0x151 JUMP JUMPDEST PUSH1 0x40 MLOAD PUSH2 0xA8 SWAP2 SWAP1 PUSH2 0x52C JUMP JUMPDEST PUSH1 0x40 MLOAD DUP1 SWAP2 SUB SWAP1 RETURN JUMPDEST PUSH2 0xCB PUSH1 0x4 DUP1 CALLDATASIZE SUB DUP2 ADD SWAP1 PUSH2 0xC6 SWAP2 SWAP1 PUSH2 0x5AC JUMP JUMPDEST PUSH2 0x181 JUMP JUMPDEST PUSH1 0x40 MLOAD PUSH2 0xD8 SWAP2 SWAP1 PUSH2 0x654 JUMP JUMPDEST PUSH1 0x40 MLOAD DUP1 SWAP2 SUB SWAP1 RETURN JUMPDEST PUSH2 0xFB PUSH1 0x4 DUP1 CALLDATASIZE SUB DUP2 ADD SWAP1 PUSH2 0xF6 SWAP2 SWAP1 PUSH2 0x66F JUMP JUMPDEST PUSH2 0x1E1 JUMP JUMPDEST PUSH1 0x40 MLOAD PUSH2 0x108 SWAP2 SWAP1 PUSH2 0x52C JUMP JUMPDEST PUSH1 0x40 MLOAD DUP1 SWAP2 SUB SWAP1 RETURN JUMPDEST PUSH1 0x0 DUP1 DUP3 MLOAD SWAP1 POP PUSH2 0x121 DUP2 PUSH2 0x211 JUMP JUMPDEST DUP4 PUSH1 0x40 MLOAD PUSH1 0x20 ADD PUSH2 0x133 SWAP3 SWAP2 SWAP1 PUSH2 0x759 JUMP JUMPDEST PUSH1 0x40 MLOAD PUSH1 0x20 DUP2 DUP4 SUB SUB DUP2 MSTORE SWAP1 PUSH1 0x40 MSTORE DUP1 MLOAD SWAP1 PUSH1 0x20 ADD KECCAK256 SWAP2 POP POP SWAP2 SWAP1 POP JUMP JUMPDEST PUSH1 0x0 DUP2 PUSH1 0x40 MLOAD PUSH1 0x20 ADD PUSH2 0x164 SWAP2 SWAP1 PUSH2 0x788 JUMP JUMPDEST PUSH1 0x40 MLOAD PUSH1 0x20 DUP2 DUP4 SUB SUB DUP2 MSTORE SWAP1 PUSH1 0x40 MSTORE DUP1 MLOAD SWAP1 PUSH1 0x20 ADD KECCAK256 SWAP1 POP SWAP2 SWAP1 POP JUMP JUMPDEST PUSH1 0x0 DUP1 PUSH1 0x1 DUP7 DUP7 DUP7 DUP7 PUSH1 0x40 MLOAD PUSH1 0x0 DUP2 MSTORE PUSH1 0x20 ADD PUSH1 0x40 MSTORE PUSH1 0x40 MLOAD PUSH2 0x1A7 SWAP5 SWAP4 SWAP3 SWAP2 SWAP1 PUSH2 0x7AE JUMP JUMPDEST PUSH1 0x20 PUSH1 0x40 MLOAD PUSH1 0x20 DUP2 SUB SWAP1 DUP1 DUP5 SUB SWAP1 DUP6 GAS STATICCALL ISZERO DUP1 ISZERO PUSH2 0x1C9 JUMPI RETURNDATASIZE PUSH1 0x0 DUP1 RETURNDATACOPY RETURNDATASIZE PUSH1 0x0 REVERT JUMPDEST POP POP POP PUSH1 0x20 PUSH1 0x40 MLOAD SUB MLOAD SWAP1 POP DUP1 SWAP2 POP POP SWAP5 SWAP4 POP POP POP POP JUMP JUMPDEST PUSH1 0x0 DUP2 PUSH1 0x40 MLOAD PUSH1 0x20 ADD PUSH2 0x1F4 SWAP2 SWAP1 PUSH2 0x860 JUMP JUMPDEST PUSH1 0x40 MLOAD PUSH1 0x20 DUP2 DUP4 SUB SUB DUP2 MSTORE SWAP1 PUSH1 0x40 MSTORE DUP1 MLOAD SWAP1 PUSH1 0x20 ADD KECCAK256 SWAP1 POP SWAP2 SWAP1 POP JUMP JUMPDEST PUSH1 0x60 PUSH1 0x0 DUP3 SUB PUSH2 0x258 JUMPI PUSH1 0x40 MLOAD DUP1 PUSH1 0x40 ADD PUSH1 0x40 MSTORE DUP1 PUSH1 0x1 DUP2 MSTORE PUSH1 0x20 ADD PUSH32 0x3000000000000000000000000000000000000000000000000000000000000000 DUP2 MSTORE POP SWAP1 POP PUSH2 0x36B JUMP JUMPDEST PUSH1 0x0 DUP1 DUP4 SWAP1 POP JUMPDEST PUSH1 0x0 DUP2 EQ PUSH2 0x289 JUMPI DUP2 DUP1 PUSH2 0x272 SWAP1 PUSH2 0x8BF JUMP JUMPDEST SWAP3 POP POP PUSH1 0xA DUP2 PUSH2 0x282 SWAP2 SWAP1 PUSH2 0x936 JUMP JUMPDEST SWAP1 POP PUSH2 0x25F JUMP JUMPDEST PUSH1 0x0 DUP3 PUSH8 0xFFFFFFFFFFFFFFFF DUP2 GT ISZERO PUSH2 0x2A5 JUMPI PUSH2 0x2A4 PUSH2 0x39F JUMP JUMPDEST JUMPDEST PUSH1 0x40 MLOAD SWAP1 DUP1 DUP3 MSTORE DUP1 PUSH1 0x1F ADD PUSH1 0x1F NOT AND PUSH1 0x20 ADD DUP3 ADD PUSH1 0x40 MSTORE DUP1 ISZERO PUSH2 0x2D7 JUMPI DUP2 PUSH1 0x20 ADD PUSH1 0x1 DUP3 MUL DUP1 CALLDATASIZE DUP4 CALLDATACOPY DUP1 DUP3 ADD SWAP2 POP POP SWAP1 POP JUMPDEST POP SWAP1 POP JUMPDEST PUSH1 0x0 DUP6 EQ PUSH2 0x364 JUMPI PUSH1 0x1 DUP4 PUSH2 0x2F0 SWAP2 SWAP1 PUSH2 0x967 JUMP JUMPDEST SWAP3 POP PUSH1 0xA DUP6 PUSH2 0x2FF SWAP2 SWAP1 PUSH2 0x99B JUMP JUMPDEST PUSH1 0x30 PUSH2 0x30B SWAP2 SWAP1 PUSH2 0x9CC JUMP JUMPDEST PUSH1 0xF8 SHL DUP2 DUP5 DUP2 MLOAD DUP2 LT PUSH2 0x321 JUMPI PUSH2 0x320 PUSH2 0xA00 JUMP JUMPDEST JUMPDEST PUSH1 0x20 ADD ADD SWAP1 PUSH31 0xFFFFFFFFFFFFFFFFFFFFFFFFFFFFFFFFFFFFFFFFFFFFFFFFFFFFFFFFFFFFFF NOT AND SWAP1 DUP2 PUSH1 0x0 BYTE SWAP1 MSTORE8 POP PUSH1 0xA DUP6 PUSH2 0x35D SWAP2 SWAP1 PUSH2 0x936 JUMP JUMPDEST SWAP5 POP PUSH2 0x2DB JUMP JUMPDEST DUP1 SWAP4 POP POP POP POP JUMPDEST SWAP2 SWAP1 POP JUMP JUMPDEST PUSH1 0x0 PUSH1 0x40 MLOAD SWAP1 POP SWAP1 JUMP JUMPDEST PUSH1 0x0 DUP1 REVERT JUMPDEST PUSH1 0x0 DUP1 REVERT JUMPDEST PUSH1 0x0 DUP1 REVERT JUMPDEST PUSH1 0x0 DUP1 REVERT JUMPDEST PUSH1 0x0 PUSH1 0x1F NOT PUSH1 0x1F DUP4 ADD AND SWAP1 POP SWAP2 SWAP1 POP JUMP JUMPDEST PUSH32 0x4E487B7100000000000000000000000000000000000000000000000000000000 PUSH1 0x0 MSTORE PUSH1 0x41 PUSH1 0x4 MSTORE PUSH1 0x24 PUSH1 0x0 REVERT JUMPDEST PUSH2 0x3D7 DUP3 PUSH2 0x38E JUMP JUMPDEST DUP2 ADD DUP2 DUP2 LT PUSH8 0xFFFFFFFFFFFFFFFF DUP3 GT OR ISZERO PUSH2 0x3F6 JUMPI PUSH2 0x3F5 PUSH2 0x39F JUMP JUMPDEST JUMPDEST DUP1 PUSH1 0x40 MSTORE POP POP POP JUMP JUMPDEST PUSH1 0x0 PUSH2 0x409 PUSH2 0x370 JUMP JUMPDEST SWAP1 POP PUSH2 0x415 DUP3 DUP3 PUSH2 0x3CE JUMP JUMPDEST SWAP2 SWAP1 POP JUMP JUMPDEST PUSH1 0x0 PUSH8 0xFFFFFFFFFFFFFFFF DUP3 GT ISZERO PUSH2 0x435 JUMPI PUSH2 0x434 PUSH2 0x39F JUMP JUMPDEST JUMPDEST PUSH2 0x43E DUP3 PUSH2 0x38E JUMP JUMPDEST SWAP1 POP PUSH1 0x20 DUP2 ADD SWAP1 POP SWAP2 SWAP1 POP JUMP JUMPDEST DUP3 DUP2 DUP4 CALLDATACOPY PUSH1 0x0 DUP4 DUP4 ADD MSTORE POP POP POP JUMP JUMPDEST PUSH1 0x0 PUSH2 0x46D PUSH2 0x468 DUP5 PUSH2 0x41A JUMP JUMPDEST PUSH2 0x3FF JUMP JUMPDEST SWAP1 POP DUP3 DUP2 MSTORE PUSH1 0x20 DUP2 ADD DUP5 DUP5 DUP5 ADD GT ISZERO PUSH2 0x489 JUMPI PUSH2 0x488 PUSH2 0x389 JUMP JUMPDEST JUMPDEST PUSH2 0x494 DUP5 DUP3 DUP6 PUSH2 0x44B JUMP JUMPDEST POP SWAP4 SWAP3 POP POP POP JUMP JUMPDEST PUSH1 0x0 DUP3 PUSH1 0x1F DUP4 ADD SLT PUSH2 0x4B1 JUMPI PUSH2 0x4B0 PUSH2 0x384 JUMP JUMPDEST JUMPDEST DUP2 CALLDATALOAD PUSH2 0x4C1 DUP5 DUP3 PUSH1 0x20 DUP7 ADD PUSH2 0x45A JUMP JUMPDEST SWAP2 POP POP SWAP3 SWAP2 POP POP JUMP JUMPDEST PUSH1 0x0 PUSH1 0x20 DUP3 DUP5 SUB SLT ISZERO PUSH2 0x4E0 JUMPI PUSH2 0x4DF PUSH2 0x37A JUMP JUMPDEST JUMPDEST PUSH1 0x0 DUP3 ADD CALLDATALOAD PUSH8 0xFFFFFFFFFFFFFFFF DUP2 GT ISZERO PUSH2 0x4FE JUMPI PUSH2 0x4FD PUSH2 0x37F JUMP JUMPDEST JUMPDEST PUSH2 0x50A DUP5 DUP3 DUP6 ADD PUSH2 0x49C JUMP JUMPDEST SWAP2 POP POP SWAP3 SWAP2 POP POP JUMP JUMPDEST PUSH1 0x0 DUP2 SWAP1 POP SWAP2 SWAP1 POP JUMP JUMPDEST PUSH2 0x526 DUP2 PUSH2 0x513 JUMP JUMPDEST DUP3 MSTORE POP POP JUMP JUMPDEST PUSH1 0x0 PUSH1 0x20 DUP3 ADD SWAP1 POP PUSH2 0x541 PUSH1 0x0 DUP4 ADD DUP5 PUSH2 0x51D JUMP JUMPDEST SWAP3 SWAP2 POP POP JUMP JUMPDEST PUSH2 0x550 DUP2 PUSH2 0x513 JUMP JUMPDEST DUP2 EQ PUSH2 0x55B JUMPI PUSH1 0x0 DUP1 REVERT JUMPDEST POP JUMP JUMPDEST PUSH1 0x0 DUP2 CALLDATALOAD SWAP1 POP PUSH2 0x56D DUP2 PUSH2 0x547 JUMP JUMPDEST SWAP3 SWAP2 POP POP JUMP JUMPDEST PUSH1 0x0 PUSH1 0xFF DUP3 AND SWAP1 POP SWAP2 SWAP1 POP JUMP JUMPDEST PUSH2 0x589 DUP2 PUSH2 0x573 JUMP JUMPDEST DUP2 EQ PUSH2 0x594 JUMPI PUSH1 0x0 DUP1 REVERT JUMPDEST POP JUMP JUMPDEST PUSH1 0x0 DUP2 CALLDATALOAD SWAP1 POP PUSH2 0x5A6 DUP2 PUSH2 0x580 JUMP JUMPDEST SWAP3 SWAP2 POP POP JUMP JUMPDEST PUSH1 0x0 DUP1 PUSH1 0x0 DUP1 PUSH1 0x80 DUP6 DUP8 SUB SLT ISZERO PUSH2 0x5C6 JUMPI PUSH2 0x5C5 PUSH2 0x37A JUMP JUMPDEST JUMPDEST PUSH1 0x0 PUSH2 0x5D4 DUP8 DUP3 DUP9 ADD PUSH2 0x55E JUMP JUMPDEST SWAP5 POP POP PUSH1 0x20 PUSH2 0x5E5 DUP8 DUP3 DUP9 ADD PUSH2 0x597 JUMP JUMPDEST SWAP4 POP POP PUSH1 0x40 PUSH2 0x5F6 DUP8 DUP3 DUP9 ADD PUSH2 0x55E JUMP JUMPDEST SWAP3 POP POP PUSH1 0x60 PUSH2 0x607 DUP8 DUP3 DUP9 ADD PUSH2 0x55E JUMP JUMPDEST SWAP2 POP POP SWAP3 SWAP6 SWAP2 SWAP5 POP SWAP3 POP JUMP JUMPDEST PUSH1 0x0 PUSH20 0xFFFFFFFFFFFFFFFFFFFFFFFFFFFFFFFFFFFFFFFF DUP3 AND SWAP1 POP SWAP2 SWAP1 POP JUMP JUMPDEST PUSH1 0x0 PUSH2 0x63E DUP3 PUSH2 0x613 JUMP JUMPDEST SWAP1 POP SWAP2 SWAP1 POP JUMP JUMPDEST PUSH2 0x64E DUP2 PUSH2 0x633 JUMP JUMPDEST DUP3 MSTORE POP POP JUMP JUMPDEST PUSH1 0x0 PUSH1 0x20 DUP3 ADD SWAP1 POP PUSH2 0x669 PUSH1 0x0 DUP4 ADD DUP5 PUSH2 0x645 JUMP JUMPDEST SWAP3 SWAP2 POP POP JUMP JUMPDEST PUSH1 0x0 PUSH1 0x20 DUP3 DUP5 SUB SLT ISZERO PUSH2 0x685 JUMPI PUSH2 0x684 PUSH2 0x37A JUMP JUMPDEST JUMPDEST PUSH1 0x0 PUSH2 0x693 DUP5 DUP3 DUP6 ADD PUSH2 0x55E JUMP JUMPDEST SWAP2 POP POP SWAP3 SWAP2 POP POP JUMP JUMPDEST PUSH1 0x0 DUP2 SWAP1 POP SWAP3 SWAP2 POP POP JUMP JUMPDEST PUSH32 0x19457468657265756D205369676E6564204D6573736167653A0A000000000000 PUSH1 0x0 DUP3 ADD MSTORE POP JUMP JUMPDEST PUSH1 0x0 PUSH2 0x6DD PUSH1 0x1A DUP4 PUSH2 0x69C JUMP JUMPDEST SWAP2 POP PUSH2 0x6E8 DUP3 PUSH2 0x6A7 JUMP JUMPDEST PUSH1 0x1A DUP3 ADD SWAP1 POP SWAP2 SWAP1 POP JUMP JUMPDEST PUSH1 0x0 DUP2 MLOAD SWAP1 POP SWAP2 SWAP1 POP JUMP JUMPDEST PUSH1 0x0 JUMPDEST DUP4 DUP2 LT ISZERO PUSH2 0x71C JUMPI DUP1 DUP3 ADD MLOAD DUP2 DUP5 ADD MSTORE PUSH1 0x20 DUP2 ADD SWAP1 POP PUSH2 0x701 JUMP JUMPDEST PUSH1 0x0 DUP5 DUP5 ADD MSTORE POP POP POP POP JUMP JUMPDEST PUSH1 0x0 PUSH2 0x733 DUP3 PUSH2 0x6F3 JUMP JUMPDEST PUSH2 0x73D DUP2 DUP6 PUSH2 0x69C JUMP JUMPDEST SWAP4 POP PUSH2 0x74D DUP2 DUP6 PUSH1 0x20 DUP7 ADD PUSH2 0x6FE JUMP JUMPDEST DUP1 DUP5 ADD SWAP2 POP POP SWAP3 SWAP2 POP POP JUMP JUMPDEST PUSH1 0x0 PUSH2 0x764 DUP3 PUSH2 0x6D0 JUMP JUMPDEST SWAP2 POP PUSH2 0x770 DUP3 DUP6 PUSH2 0x728 JUMP JUMPDEST SWAP2 POP PUSH2 0x77C DUP3 DUP5 PUSH2 0x728 JUMP JUMPDEST SWAP2 POP DUP2 SWAP1 POP SWAP4 SWAP3 POP POP POP JUMP JUMPDEST PUSH1 0x0 PUSH2 0x794 DUP3 DUP5 PUSH2 0x728 JUMP JUMPDEST SWAP2 POP DUP2 SWAP1 POP SWAP3 SWAP2 POP POP JUMP JUMPDEST PUSH2 0x7A8 DUP2 PUSH2 0x573 JUMP JUMPDEST DUP3 MSTORE POP POP JUMP JUMPDEST PUSH1 0x0 PUSH1 0x80 DUP3 ADD SWAP1 POP PUSH2 0x7C3 PUSH1 0x0 DUP4 ADD DUP8 PUSH2 0x51D JUMP JUMPDEST PUSH2 0x7D0 PUSH1 0x20 DUP4 ADD DUP7 PUSH2 0x79F JUMP JUMPDEST PUSH2 0x7DD PUSH1 0x40 DUP4 ADD DUP6 PUSH2 0x51D JUMP JUMPDEST PUSH2 0x7EA PUSH1 0x60 DUP4 ADD DUP5 PUSH2 0x51D JUMP JUMPDEST SWAP6 SWAP5 POP POP POP POP POP JUMP JUMPDEST PUSH32 0x19457468657265756D205369676E6564204D6573736167653A0A333200000000 PUSH1 0x0 DUP3 ADD MSTORE POP JUMP JUMPDEST PUSH1 0x0 PUSH2 0x829 PUSH1 0x1C DUP4 PUSH2 0x69C JUMP JUMPDEST SWAP2 POP PUSH2 0x834 DUP3 PUSH2 0x7F3 JUMP JUMPDEST PUSH1 0x1C DUP3 ADD SWAP1 POP SWAP2 SWAP1 POP JUMP JUMPDEST PUSH1 0x0 DUP2 SWAP1 POP SWAP2 SWAP1 POP JUMP JUMPDEST PUSH2 0x85A PUSH2 0x855 DUP3 PUSH2 0x513 JUMP JUMPDEST PUSH2 0x83F JUMP JUMPDEST DUP3 MSTORE POP POP JUMP JUMPDEST PUSH1 0x0 PUSH2 0x86B DUP3 PUSH2 0x81C JUMP JUMPDEST SWAP2 POP PUSH2 0x877 DUP3 DUP5 PUSH2 0x849 JUMP JUMPDEST PUSH1 0x20 DUP3 ADD SWAP2 POP DUP2 SWAP1 POP SWAP3 SWAP2 POP POP JUMP JUMPDEST PUSH32 0x4E487B7100000000000000000000000000000000000000000000000000000000 PUSH1 0x0 MSTORE PUSH1 0x11 PUSH1 0x4 MSTORE PUSH1 0x24 PUSH1 0x0 REVERT JUMPDEST PUSH1 0x0 DUP2 SWAP1 POP SWAP2 SWAP1 POP JUMP JUMPDEST PUSH1 0x0 PUSH2 0x8CA DUP3 PUSH2 0x8B5 JUMP JUMPDEST SWAP2 POP PUSH32 0xFFFFFFFFFFFFFFFFFFFFFFFFFFFFFFFFFFFFFFFFFFFFFFFFFFFFFFFFFFFFFFFF DUP3 SUB PUSH2 0x8FC JUMPI PUSH2 0x8FB PUSH2 0x886 JUMP JUMPDEST JUMPDEST PUSH1 0x1 DUP3 ADD SWAP1 POP SWAP2 SWAP1 POP JUMP JUMPDEST PUSH32 0x4E487B7100000000000000000000000000000000000000000000000000000000 PUSH1 0x0 MSTORE PUSH1 0x12 PUSH1 0x4 MSTORE PUSH1 0x24 PUSH1 0x0 REVERT JUMPDEST PUSH1 0x0 PUSH2 0x941 DUP3 PUSH2 0x8B5 JUMP JUMPDEST SWAP2 POP PUSH2 0x94C DUP4 PUSH2 0x8B5 JUMP JUMPDEST SWAP3 POP DUP3 PUSH2 0x95C JUMPI PUSH2 0x95B PUSH2 0x907 JUMP JUMPDEST JUMPDEST DUP3 DUP3 DIV SWAP1 POP SWAP3 SWAP2 POP POP JUMP JUMPDEST PUSH1 0x0 PUSH2 0x972 DUP3 PUSH2 0x8B5 JUMP JUMPDEST SWAP2 POP PUSH2 0x97D DUP4 PUSH2 0x8B5 JUMP JUMPDEST SWAP3 POP DUP3 DUP3 SUB SWAP1 POP DUP2 DUP2 GT ISZERO PUSH2 0x995 JUMPI PUSH2 0x994 PUSH2 0x886 JUMP JUMPDEST JUMPDEST SWAP3 SWAP2 POP POP JUMP JUMPDEST PUSH1 0x0 PUSH2 0x9A6 DUP3 PUSH2 0x8B5 JUMP JUMPDEST SWAP2 POP PUSH2 0x9B1 DUP4 PUSH2 0x8B5 JUMP JUMPDEST SWAP3 POP DUP3 PUSH2 0x9C1 JUMPI PUSH2 0x9C0 PUSH2 0x907 JUMP JUMPDEST JUMPDEST DUP3 DUP3 MOD SWAP1 POP SWAP3 SWAP2 POP POP JUMP JUMPDEST PUSH1 0x0 PUSH2 0x9D7 DUP3 PUSH2 0x8B5 JUMP JUMPDEST SWAP2 POP PUSH2 0x9E2 DUP4 PUSH2 0x8B5 JUMP JUMPDEST SWAP3 POP DUP3 DUP3 ADD SWAP1 POP DUP1 DUP3 GT ISZERO PUSH2 0x9FA JUMPI PUSH2 0x9F9 PUSH2 0x886 JUMP JUMPDEST JUMPDEST SWAP3 SWAP2 POP POP JUMP JUMPDEST PUSH32 0x4E487B7100000000000000000000000000000000000000000000000000000000 PUSH1 0x0 MSTORE PUSH1 0x32 PUSH1 0x4 MSTORE PUSH1 0x24 PUSH1 0x0 REVERT INVALID LOG2 PUSH5 0x6970667358 0x22 SLT KECCAK256 PUSH8 0x540AD8E380F7B66C GASLIMIT 0xCF 0xD5 0xAE 0xBF 0xB2 0xD6 SWAP1 DELEGATECALL 0xAC PUSH18 0x29866AD24D7CB2D85EED6E7F64736F6C6343 STOP ADDMOD BYTE STOP CALLER "
        },
        "methodIdentifiers": {
          "getEthSignedMessageHash(bytes32)": "fa540801",
          "getEthSignedMessageHashV2(string)": "9dc3eae3",
          "getMessageHash(string)": "b446f3b2",
          "verify(bytes32,uint8,bytes32,bytes32)": "f1835db7"
        }
      }
    }
  }
}